{
	"data": {
		"bytecode": {
			"linkReferences": {},
			"object": "608060405234801561001057600080fd5b50610218806100206000396000f3fe608060405234801561001057600080fd5b506004361061002b5760003560e01c806390f6a28514610030575b600080fd5b61004a600480360381019061004591906100a8565b610061565b60405161005892919061010a565b60405180910390f35b60008083856100709190610133565b83858761007d9190610133565b6100879190610133565b91509150935093915050565b6000813590506100a2816101cb565b92915050565b6000806000606084860312156100c1576100c06101c6565b5b60006100cf86828701610093565b93505060206100e086828701610093565b92505060406100f186828701610093565b9150509250925092565b6101048161018d565b82525050565b600060408201905061011f60008301856100fb565b61012c60208301846100fb565b9392505050565b600061013e8261018d565b91506101498361018d565b9250817fffffffffffffffffffffffffffffffffffffffffffffffffffffffffffffffff048311821515161561018257610181610197565b5b828202905092915050565b6000819050919050565b7f4e487b7100000000000000000000000000000000000000000000000000000000600052601160045260246000fd5b600080fd5b6101d48161018d565b81146101df57600080fd5b5056fea2646970667358221220e589a7c19e2f0643e3b031dfbced44fd423325ff74ab706cb1e371a80e61f66764736f6c63430008070033",
			"opcodes": "PUSH1 0x80 PUSH1 0x40 MSTORE CALLVALUE DUP1 ISZERO PUSH2 0x10 JUMPI PUSH1 0x0 DUP1 REVERT JUMPDEST POP PUSH2 0x218 DUP1 PUSH2 0x20 PUSH1 0x0 CODECOPY PUSH1 0x0 RETURN INVALID PUSH1 0x80 PUSH1 0x40 MSTORE CALLVALUE DUP1 ISZERO PUSH2 0x10 JUMPI PUSH1 0x0 DUP1 REVERT JUMPDEST POP PUSH1 0x4 CALLDATASIZE LT PUSH2 0x2B JUMPI PUSH1 0x0 CALLDATALOAD PUSH1 0xE0 SHR DUP1 PUSH4 0x90F6A285 EQ PUSH2 0x30 JUMPI JUMPDEST PUSH1 0x0 DUP1 REVERT JUMPDEST PUSH2 0x4A PUSH1 0x4 DUP1 CALLDATASIZE SUB DUP2 ADD SWAP1 PUSH2 0x45 SWAP2 SWAP1 PUSH2 0xA8 JUMP JUMPDEST PUSH2 0x61 JUMP JUMPDEST PUSH1 0x40 MLOAD PUSH2 0x58 SWAP3 SWAP2 SWAP1 PUSH2 0x10A JUMP JUMPDEST PUSH1 0x40 MLOAD DUP1 SWAP2 SUB SWAP1 RETURN JUMPDEST PUSH1 0x0 DUP1 DUP4 DUP6 PUSH2 0x70 SWAP2 SWAP1 PUSH2 0x133 JUMP JUMPDEST DUP4 DUP6 DUP8 PUSH2 0x7D SWAP2 SWAP1 PUSH2 0x133 JUMP JUMPDEST PUSH2 0x87 SWAP2 SWAP1 PUSH2 0x133 JUMP JUMPDEST SWAP2 POP SWAP2 POP SWAP4 POP SWAP4 SWAP2 POP POP JUMP JUMPDEST PUSH1 0x0 DUP2 CALLDATALOAD SWAP1 POP PUSH2 0xA2 DUP2 PUSH2 0x1CB JUMP JUMPDEST SWAP3 SWAP2 POP POP JUMP JUMPDEST PUSH1 0x0 DUP1 PUSH1 0x0 PUSH1 0x60 DUP5 DUP7 SUB SLT ISZERO PUSH2 0xC1 JUMPI PUSH2 0xC0 PUSH2 0x1C6 JUMP JUMPDEST JUMPDEST PUSH1 0x0 PUSH2 0xCF DUP7 DUP3 DUP8 ADD PUSH2 0x93 JUMP JUMPDEST SWAP4 POP POP PUSH1 0x20 PUSH2 0xE0 DUP7 DUP3 DUP8 ADD PUSH2 0x93 JUMP JUMPDEST SWAP3 POP POP PUSH1 0x40 PUSH2 0xF1 DUP7 DUP3 DUP8 ADD PUSH2 0x93 JUMP JUMPDEST SWAP2 POP POP SWAP3 POP SWAP3 POP SWAP3 JUMP JUMPDEST PUSH2 0x104 DUP2 PUSH2 0x18D JUMP JUMPDEST DUP3 MSTORE POP POP JUMP JUMPDEST PUSH1 0x0 PUSH1 0x40 DUP3 ADD SWAP1 POP PUSH2 0x11F PUSH1 0x0 DUP4 ADD DUP6 PUSH2 0xFB JUMP JUMPDEST PUSH2 0x12C PUSH1 0x20 DUP4 ADD DUP5 PUSH2 0xFB JUMP JUMPDEST SWAP4 SWAP3 POP POP POP JUMP JUMPDEST PUSH1 0x0 PUSH2 0x13E DUP3 PUSH2 0x18D JUMP JUMPDEST SWAP2 POP PUSH2 0x149 DUP4 PUSH2 0x18D JUMP JUMPDEST SWAP3 POP DUP2 PUSH32 0xFFFFFFFFFFFFFFFFFFFFFFFFFFFFFFFFFFFFFFFFFFFFFFFFFFFFFFFFFFFFFFFF DIV DUP4 GT DUP3 ISZERO ISZERO AND ISZERO PUSH2 0x182 JUMPI PUSH2 0x181 PUSH2 0x197 JUMP JUMPDEST JUMPDEST DUP3 DUP3 MUL SWAP1 POP SWAP3 SWAP2 POP POP JUMP JUMPDEST PUSH1 0x0 DUP2 SWAP1 POP SWAP2 SWAP1 POP JUMP JUMPDEST PUSH32 0x4E487B7100000000000000000000000000000000000000000000000000000000 PUSH1 0x0 MSTORE PUSH1 0x11 PUSH1 0x4 MSTORE PUSH1 0x24 PUSH1 0x0 REVERT JUMPDEST PUSH1 0x0 DUP1 REVERT JUMPDEST PUSH2 0x1D4 DUP2 PUSH2 0x18D JUMP JUMPDEST DUP2 EQ PUSH2 0x1DF JUMPI PUSH1 0x0 DUP1 REVERT JUMPDEST POP JUMP INVALID LOG2 PUSH5 0x6970667358 0x22 SLT KECCAK256 0xE5 DUP10 0xA7 0xC1 SWAP15 0x2F MOD NUMBER 0xE3 0xB0 BALANCE 0xDF 0xBC 0xED DIFFICULTY REVERT TIMESTAMP CALLER 0x25 SELFDESTRUCT PUSH21 0xAB706CB1E371A80E61F66764736F6C634300080700 CALLER "
		},
		"gasEstimates": {
			"creation": {
				"codeDepositCost": "107200",
				"executionCost": "153",
				"totalCost": "107353"
			},
			"external": {
				"prizma(uint256,uint256,uint256)": "infinite"
			}
		},
		"methodIdentifiers": {
			"prizma(uint256,uint256,uint256)": "90f6a285"
		}
	},
	"abi": [
		{
			"inputs": [
				{
					"internalType": "uint256",
					"name": "kenar1",
					"type": "uint256"
				},
				{
					"internalType": "uint256",
					"name": "kenar2",
					"type": "uint256"
				},
				{
					"internalType": "uint256",
					"name": "yukseklik",
					"type": "uint256"
				}
			],
			"name": "prizma",
			"outputs": [
				{
					"internalType": "uint256",
					"name": "alan",
					"type": "uint256"
				},
				{
					"internalType": "uint256",
					"name": "hacim",
					"type": "uint256"
				}
			],
			"stateMutability": "pure",
			"type": "function"
		}
	]
}